{
  "contractName": "PatientRole",
  "abi": [
    {
      "inputs": [],
      "payable": false,
      "stateMutability": "nonpayable",
      "type": "constructor"
    },
    {
      "anonymous": false,
      "inputs": [
        {
          "indexed": true,
          "internalType": "address",
          "name": "account",
          "type": "address"
        }
      ],
      "name": "PatientAdded",
      "type": "event"
    },
    {
      "anonymous": false,
      "inputs": [
        {
          "indexed": true,
          "internalType": "address",
          "name": "account",
          "type": "address"
        }
      ],
      "name": "PatientRemoved",
      "type": "event"
    },
    {
      "constant": true,
      "inputs": [
        {
          "internalType": "address",
          "name": "account",
          "type": "address"
        }
      ],
      "name": "isPatient",
      "outputs": [
        {
          "internalType": "bool",
          "name": "",
          "type": "bool"
        }
      ],
      "payable": false,
      "stateMutability": "view",
      "type": "function"
    },
    {
      "constant": false,
      "inputs": [
        {
          "internalType": "address",
          "name": "account",
          "type": "address"
        }
      ],
      "name": "addPatient",
      "outputs": [],
      "payable": false,
      "stateMutability": "nonpayable",
      "type": "function"
    },
    {
      "constant": false,
      "inputs": [],
      "name": "renouncePatient",
      "outputs": [],
      "payable": false,
      "stateMutability": "nonpayable",
      "type": "function"
    }
  ],
  "bytecode": "0x608060405234801561001057600080fd5b506100203361002560201b60201c565b6101c4565b61003a60008261008060201b6102611760201c565b8073ffffffffffffffffffffffffffffffffffffffff167fa58cff07db0adda3ab7a40bd2f18ab57210bf38391a52ffd2e8eee6b8bdec71a60405160405180910390a250565b600073ffffffffffffffffffffffffffffffffffffffff168173ffffffffffffffffffffffffffffffffffffffff1614156100ba57600080fd5b6100ca828261013260201b60201c565b156100d457600080fd5b60018260000160008373ffffffffffffffffffffffffffffffffffffffff1673ffffffffffffffffffffffffffffffffffffffff16815260200190815260200160002060006101000a81548160ff0219169083151502179055505050565b60008073ffffffffffffffffffffffffffffffffffffffff168273ffffffffffffffffffffffffffffffffffffffff16141561016d57600080fd5b8260000160008373ffffffffffffffffffffffffffffffffffffffff1673ffffffffffffffffffffffffffffffffffffffff16815260200190815260200160002060009054906101000a900460ff16905092915050565b6103ed806101d36000396000f3fe608060405234801561001057600080fd5b50600436106100415760003560e01c80636d263ceb1461004657806381a07c361461008a5780638f9c79ed14610094575b600080fd5b6100886004803603602081101561005c57600080fd5b81019080803573ffffffffffffffffffffffffffffffffffffffff1690602001909291905050506100f0565b005b61009261010e565b005b6100d6600480360360208110156100aa57600080fd5b81019080803573ffffffffffffffffffffffffffffffffffffffff169060200190929190505050610119565b604051808215151515815260200191505060405180910390f35b6100f933610119565b61010257600080fd5b61010b8161012d565b50565b6101173361017e565b565b60006101266000836101cf565b9050919050565b610138600082610261565b8073ffffffffffffffffffffffffffffffffffffffff167fa58cff07db0adda3ab7a40bd2f18ab57210bf38391a52ffd2e8eee6b8bdec71a60405160405180910390a250565b61018960008261030d565b8073ffffffffffffffffffffffffffffffffffffffff167f053a4badf166f01c4b02f6bcb71d2d67734470d0866282e291e73001aa25c76960405160405180910390a250565b60008073ffffffffffffffffffffffffffffffffffffffff168273ffffffffffffffffffffffffffffffffffffffff16141561020a57600080fd5b8260000160008373ffffffffffffffffffffffffffffffffffffffff1673ffffffffffffffffffffffffffffffffffffffff16815260200190815260200160002060009054906101000a900460ff16905092915050565b600073ffffffffffffffffffffffffffffffffffffffff168173ffffffffffffffffffffffffffffffffffffffff16141561029b57600080fd5b6102a582826101cf565b156102af57600080fd5b60018260000160008373ffffffffffffffffffffffffffffffffffffffff1673ffffffffffffffffffffffffffffffffffffffff16815260200190815260200160002060006101000a81548160ff0219169083151502179055505050565b600073ffffffffffffffffffffffffffffffffffffffff168173ffffffffffffffffffffffffffffffffffffffff16141561034757600080fd5b61035182826101cf565b61035a57600080fd5b60008260000160008373ffffffffffffffffffffffffffffffffffffffff1673ffffffffffffffffffffffffffffffffffffffff16815260200190815260200160002060006101000a81548160ff021916908315150217905550505056fea265627a7a723158207b65bb5ff24c8cd543834aa8391ce04a50915aea41c5992f1773429af47b315a64736f6c63430005100032",
  "source": "pragma solidity >=0.4.16 <0.9.0;\r\n\r\n// Import the library 'Roles'\r\nimport \"./Roles.sol\";\r\n\r\n// Define a contract 'PatientRole' to manage this role - add, remove, check\r\ncontract PatientRole {\r\n  using Roles for Roles.Role;\r\n\r\n  // Define 2 events, one for Adding, and other for Removing\r\n  event PatientAdded(address indexed account);\r\n  event PatientRemoved(address indexed account);\r\n\r\n  // Define a struct 'patients' by inheriting from 'Roles' library, struct Role\r\n  Roles.Role private patients;\r\n\r\n  // In the constructor make the address that deploys this contract the 1st patient\r\n  constructor() public {\r\n    _addPatient(msg.sender);\r\n  }\r\n\r\n  // Define a modifier that checks to see if msg.sender has the appropriate role\r\n  modifier onlyPatient() {\r\n    require(isPatient(msg.sender));\r\n    _;\r\n  }\r\n\r\n  // Define a function 'isPatient' to check this role\r\n  function isPatient(address account) public view returns (bool) {\r\n    return Roles.has(patients, account);\r\n  }\r\n\r\n  // Define a function 'addPatient' that adds this role\r\n  function addPatient(address account) public onlyPatient {\r\n    _addPatient(account);\r\n  }\r\n\r\n  // Define a function 'renouncePatient' to renounce this role\r\n  function renouncePatient() public {\r\n    _removePatient(msg.sender);\r\n  }\r\n\r\n  // Define an internal function '_addPatient' to add this role, called by 'addPatient'\r\n  function _addPatient(address account) internal {\r\n    Roles.add(patients, account);\r\n    emit PatientAdded(account);\r\n  }\r\n\r\n  // Define an internal function '_removePatient' to remove this role, called by 'removePatient'\r\n  function _removePatient(address account) internal {\r\n    Roles.remove(patients, account);\r\n    emit PatientRemoved(account);\r\n  }\r\n}",
  "sourcePath": "D:\\projects\\blockchain\\CapstoneFinal\\contracts\\PatientRole.sol",
  "compiler": {
    "name": "solc",
    "version": "0.5.16+commit.9c3226ce.Emscripten.clang"
  },
  "schemaVersion": "3.0.23",
  "updatedAt": "2021-12-02T12:51:02.569Z",
  "networkType": "ethereum",
  "devdoc": {
    "methods": {}
  },
  "userdoc": {
    "methods": {}
  }
}