{
  "contractName": "PharmacistRole",
  "abi": [
    {
      "inputs": [],
      "payable": false,
      "stateMutability": "nonpayable",
      "type": "constructor"
    },
    {
      "anonymous": false,
      "inputs": [
        {
          "indexed": true,
          "internalType": "address",
          "name": "account",
          "type": "address"
        }
      ],
      "name": "PharmacistAdded",
      "type": "event"
    },
    {
      "anonymous": false,
      "inputs": [
        {
          "indexed": true,
          "internalType": "address",
          "name": "account",
          "type": "address"
        }
      ],
      "name": "PharmacistRemoved",
      "type": "event"
    },
    {
      "constant": true,
      "inputs": [
        {
          "internalType": "address",
          "name": "account",
          "type": "address"
        }
      ],
      "name": "isPharmacist",
      "outputs": [
        {
          "internalType": "bool",
          "name": "",
          "type": "bool"
        }
      ],
      "payable": false,
      "stateMutability": "view",
      "type": "function"
    },
    {
      "constant": false,
      "inputs": [
        {
          "internalType": "address",
          "name": "account",
          "type": "address"
        }
      ],
      "name": "addPharmacist",
      "outputs": [],
      "payable": false,
      "stateMutability": "nonpayable",
      "type": "function"
    },
    {
      "constant": false,
      "inputs": [],
      "name": "renouncePharmacist",
      "outputs": [],
      "payable": false,
      "stateMutability": "nonpayable",
      "type": "function"
    }
  ],
  "bytecode": "0x608060405234801561001057600080fd5b506100203361002560201b60201c565b6101c4565b61003a60008261008060201b61030c1760201c565b8073ffffffffffffffffffffffffffffffffffffffff167f5a4264410853372bdd7255ebc9624cb523fc039cd6f9f1855165194738125f6360405160405180910390a250565b600073ffffffffffffffffffffffffffffffffffffffff168173ffffffffffffffffffffffffffffffffffffffff1614156100ba57600080fd5b6100ca828261013260201b60201c565b156100d457600080fd5b60018260000160008373ffffffffffffffffffffffffffffffffffffffff1673ffffffffffffffffffffffffffffffffffffffff16815260200190815260200160002060006101000a81548160ff0219169083151502179055505050565b60008073ffffffffffffffffffffffffffffffffffffffff168273ffffffffffffffffffffffffffffffffffffffff16141561016d57600080fd5b8260000160008373ffffffffffffffffffffffffffffffffffffffff1673ffffffffffffffffffffffffffffffffffffffff16815260200190815260200160002060009054906101000a900460ff16905092915050565b6103ed806101d36000396000f3fe608060405234801561001057600080fd5b50600436106100415760003560e01c80635ae632471461004657806382946ee214610050578063c09e2693146100ac575b600080fd5b61004e6100f0565b005b6100926004803603602081101561006657600080fd5b81019080803573ffffffffffffffffffffffffffffffffffffffff1690602001909291905050506100fb565b604051808215151515815260200191505060405180910390f35b6100ee600480360360208110156100c257600080fd5b81019080803573ffffffffffffffffffffffffffffffffffffffff16906020019092919050505061010f565b005b6100f93361012d565b565b600061010860008361017e565b9050919050565b610118336100fb565b61012157600080fd5b61012a81610210565b50565b610138600082610261565b8073ffffffffffffffffffffffffffffffffffffffff167f9d17ec7e57a5118cf27abf33370bcc6f007c27a9706ab4cc473a76fe552447d260405160405180910390a250565b60008073ffffffffffffffffffffffffffffffffffffffff168273ffffffffffffffffffffffffffffffffffffffff1614156101b957600080fd5b8260000160008373ffffffffffffffffffffffffffffffffffffffff1673ffffffffffffffffffffffffffffffffffffffff16815260200190815260200160002060009054906101000a900460ff16905092915050565b61021b60008261030c565b8073ffffffffffffffffffffffffffffffffffffffff167f5a4264410853372bdd7255ebc9624cb523fc039cd6f9f1855165194738125f6360405160405180910390a250565b600073ffffffffffffffffffffffffffffffffffffffff168173ffffffffffffffffffffffffffffffffffffffff16141561029b57600080fd5b6102a5828261017e565b6102ae57600080fd5b60008260000160008373ffffffffffffffffffffffffffffffffffffffff1673ffffffffffffffffffffffffffffffffffffffff16815260200190815260200160002060006101000a81548160ff0219169083151502179055505050565b600073ffffffffffffffffffffffffffffffffffffffff168173ffffffffffffffffffffffffffffffffffffffff16141561034657600080fd5b610350828261017e565b1561035a57600080fd5b60018260000160008373ffffffffffffffffffffffffffffffffffffffff1673ffffffffffffffffffffffffffffffffffffffff16815260200190815260200160002060006101000a81548160ff021916908315150217905550505056fea265627a7a72315820dfc920b055fbe35e59a12fe26a4261b2564bd51ccd575469b67a04fbe6dda6ff64736f6c63430005100032",
  "source": "pragma solidity >=0.4.16 <0.9.0;\r\n\r\n\r\n// Import the library 'Roles'\r\nimport \"./Roles.sol\";\r\n\r\n// Define a contract 'PharmacistRole' to manage this role - add, remove, check\r\ncontract PharmacistRole {\r\n  using Roles for Roles.Role;\r\n\r\n  // Define 2 events, one for Adding, and other for Removing\r\n  event PharmacistAdded(address indexed account);\r\n  event PharmacistRemoved(address indexed account);\r\n\r\n  // Define a struct 'pharmacists' by inheriting from 'Roles' library, struct Role\r\n  Roles.Role private pharmacists;\r\n  // In the constructor make the address that deploys this contract the 1st pharmacist\r\n  constructor() public {\r\n    _addPharmacist(msg.sender);\r\n  }\r\n\r\n  // Define a modifier that checks to see if msg.sender has the appropriate role\r\n  modifier onlyPharmacist() {\r\n    require(isPharmacist(msg.sender));\r\n    _;\r\n  }\r\n\r\n  // Define a function 'isPharmacist' to check this role\r\n  function isPharmacist(address account) public view returns (bool) {\r\n    return Roles.has(pharmacists, account);\r\n  }\r\n\r\n  // Define a function 'addPharmacist' that adds this role\r\n  function addPharmacist(address account) public onlyPharmacist {\r\n    _addPharmacist(account);\r\n  }\r\n\r\n  // Define a function 'renouncePharmacist' to renounce this role\r\n  function renouncePharmacist() public {\r\n    _removePharmacist(msg.sender);\r\n  }\r\n\r\n  // Define an internal function '_addPharmacist' to add this role, called by 'addPharmacist'\r\n  function _addPharmacist(address account) internal {\r\n    Roles.add(pharmacists, account);\r\n    emit PharmacistAdded(account);\r\n  }\r\n\r\n  // Define an internal function '_removePharmacist' to remove this role, called by 'removePharmacist'\r\n  function _removePharmacist(address account) internal {\r\n    Roles.remove(pharmacists, account);\r\n    emit PharmacistRemoved(account);\r\n  }\r\n}",
  "sourcePath": "D:\\projects\\blockchain\\CapstoneFinal\\contracts\\PharmacistRole.sol",
  "compiler": {
    "name": "solc",
    "version": "0.5.16+commit.9c3226ce.Emscripten.clang"
  },
  "schemaVersion": "3.0.23",
  "updatedAt": "2021-12-02T12:51:02.582Z",
  "networkType": "ethereum",
  "devdoc": {
    "methods": {}
  },
  "userdoc": {
    "methods": {}
  }
}